:1000000044C04AC2CDC05BC05AC059C058C057C0D6
:1000100056C055C054C053C052C051C050C04FC04C
:100020004EC04DC04CC009021900010100400A0930
:1000300004000001000000000705810308000A1207
:10004000010101FF0000081111222200010102003C
:100050000116035500530042004100560052003281
:10006000003300310033001E03410072007400654C
:10007000006D00200053006F00660074007700617F
:100080000072006500040309040011241FBECFE5BF
:10009000D4E0DEBFCDBF10E0A0E6B0E0EEEEF7E0CA
:1000A00002C005900D92A436B107D9F710E0A4E67E
:1000B000B0E001C01D92A93AB107E1F789C0A0CF15
:1000C000CF93DF93DC01EC018981883D11F4C29A62
:1000D00001C0C298E199FECF85E28EBBE09A8DB354
:1000E000482F5527342F84E690E09093A300809307
:1000F000A200FD012181222339F4828180936400D2
:1001000083818093650011C0213091F44093640095
:1001100030E0E7E6F0E097E081918111322B220F89
:10012000915097FFF9CF3093650082E090E035C0A1
:10013000822F8250823078F5ED018C818770E82F14
:10014000FF2781E090E00E2E02C0880F991F0A94CD
:10015000E2F74823223031F4382B90E0442329F48D
:1001600091E003C080953823942FED018A81882384
:1001700069F4E959FF4F8083E199FECF85E28EBB98
:100180003DBBF894E29AE19A789405C0992319F05E
:10019000E959FF4F808380E090E0DF91CF9108958F
:1001A0001F920F920FB60F9211248F9380918700A8
:1001B000882321F010928700C29804C081E08093C8
:1001C0008700C29A8F910F900FBE0F901F901895C5
:1001D000CFE5D4E0DEBFCDBF1092870088E190E08C
:1001E0002EE00FB6F894A89581BD0FBE21BD12BABE
:1001F00018BA8FEF87BB90E09150F1F78150D9F793
:100200008CEF87BB85E083BF39D178948BB780684A
:100210008BBFA8954DD008B600FE19C088B7816085
:1002200088BF809166008150809366008F3F79F48B
:1002300088E080936600E7E6F0E097E0808188231D
:1002400011F0815080839150319697FFF7CF8091C4
:10025000600084FFDECF61E087E890E001D0D9CF75
:10026000CF93B92FA82FC62F2BE49091A40090FD17
:1002700023EC8091600084FF04C09F5F9093A400F2
:1002800003C08AE58093600020939400E5E9F0E0E4
:100290002C2F21502F3F19F08D918193FACF6C2F85
:1002A00085E990E0A0D2CC5FC0936000CF91089523
:1002B0001F93CF93DF939091A500992309F47BC0FE
:1002C000935097FD76C0CFE6D0E0C0919300CF5F0A
:1002D00040E010E88091A1008D3209F066C09830AE
:1002E00009F063C08881807609F054C021E930E0CC
:1002F000409391008981882351F488818F7119F48A
:1003000081E0809391004093920042E039C08530B3
:1003100021F48A818093A60041C0863019F510EC43
:100320008B81813021F42FE330E042E129C082301B
:1003300021F426E230E049E123C0833079F58A8157
:10034000882321F425E830E044E01AC0813021F40C
:1003500027E630E04EE114C0823001F521E530E0BF
:1003600046E10EC0883019F428EA30E008C0893030
:1003700021F48A818093A80011C08A3031F441E0D1
:100380003093A3002093A20009C08B3039F440932E
:10039000A40004C08C2F9D2F93DE482F8F818823CB
:1003A00021F48E81841708F4482F10938500409320
:1003B00062001092A500909162009F3F09F443C033
:1003C0008091610084FF3FC0692F993008F068E098
:1003D000961B909362001BE48091850080FD13ECD6
:1003E0008F5F80938500A9E8B0E0E091A200F091D2
:1003F000A300962F915086FF08C09F3F61F0C895DB
:10040000802D8D9331969150F8CF9F3F21F08191AF
:100410008D939150FACFF093A300E093A200772739
:10042000C62F693040F489E890E0DDD19C2F9C5FB5
:10043000C83028F401C09EE18FEF809362001093D2
:1004400088009093610086B3837019F01092860043
:1004500011C080918600882369F494E686B3837086
:1004600049F49150D9F781E0809386009093A600DB
:100470009093A000DF91CF911F9108958FE690E0B7
:1004800080939F000B968093930085B7836085BF10
:100490008BB780648BBF08950F930FB70F9305E060
:1004A000B09BFECF0A95B099E9F71F933F932F9326
:1004B00031E012E006B3102710FD32E0102F3A951C
:1004C000C9F700FDE1C006B3102720E010FB20F9BA
:1004D000DF9316B3012700FB21F9CF93C0919F0052
:1004E00006B3102710FB22F93BE0D0E04F9316B380
:1004F000012700FB23F94FEF000051C005E0B09B3E
:10050000FECF0A95B099E9F7DF9100C0D1CF16B3BD
:10051000137079F14F7D206213C006B3037049F167
:100520004F7B206415C0037021F1102F206806B3A3
:1005300019C006B30370E9F04E7F216018C039F38B
:1005400006B30370B1F0102710FB26F9223028F310
:1005500016B3012700FB27F9422749934FEF06B353
:10056000243008F3102710FB20F9297F11F316B36C
:100570001370E1F1012700FB21F9237FF1F006B3AD
:100580000370A1F1102710FB22F9277EE1F016B3CA
:10059000012700FB23F93A9541F12F7CD1F006B3F6
:1005A000037021F1102710FB24F92F79C1F016B345
:1005B000012700FB25F92F73C2CF16B31370B1F0DA
:1005C0004D7F2260DCCF06B3037081F04B7F246047
:1005D000DECF16B3137051F0477F2860E0CF06B32B
:1005E000037021F04F7E2061E2CF3DC03C2FC091CF
:1005F0009F003C1B00E433300ABFA8F10881198139
:10060000412F1F772091A0000D3289F1013E79F131
:100610000936C1F00777033431F51091A700112393
:1006200011F10091A5000030D1F53430D2F13093B2
:10063000A5001093A10000919300C0939300009334
:100640009F002FC0121779F447FD37C03091610029
:1006500034FD23C00AE500936100C8E8D0E025C05E
:1006600000270093A7004F91CF91DF910DC0121783
:10067000B9F70093A7000AE5009361004F91CF916D
:100680000AB706FD3BCFDF9100E40ABF2F913F91EF
:100690001F910F910FBF0F911895432F03C04AE58B
:1006A00001C042EDC4E1D0E032E05F9353E0C09A74
:1006B00008B3B89AB99A20E819C00AE530916000E9
:1006C00034FDEBCF00936000C4E9D0E0EECF052706
:1006D00010E008BB10C0052710E0089408BB13C049
:1006E000052710E015C0052710E019C020FF0527D9
:1006F00008BB279517951C3F50F720FF0527279526
:1007000008BB17951C3F38F720FF0527279517953D
:1007100008BB1C3F28F720FF0527279517951C3F8E
:1007200008BB08F700C0499120FF052708BB2795A3
:1007300017951C3F80F520FF0527279508BB1795C7
:100740001C3F68F520FF05272795179508BB1C3F20
:1007500058F520FF0527279517951C3F08BB38F54E
:10076000242F3A9519F60C7F5F9108BB32E03A9539
:10077000F1F71091A600C651D04011F01093A000DF
:10078000016017B31C7F08BB0C7F4F91CF9117BB43
:1007900008BBDF9179CF052710E008BBCACF05273A
:1007A00010E0089408BBCDCF052710E0CFCF052778
:1007B00010E0D3CFA82FB92F8FEF9FEF41E050EA81
:1007C000615070F02D9138E0722F782796958795BB
:1007D000269570FF02C0842795273A95A9F7F0CF98
:0E07E000809590950895E6DF8D939D93089582
:0407EE005A5AFF0054
:00000001FF
