:1000000044C07DC2D1C05CC05BC05AC059C058C09A
:1000100057C056C055C054C053C052C051C050C044
:100020004FC04EC04DC0040309041E0341007200BE
:10003000740065006D00200053006F0066007400BE
:1000400077006100720065001603550053004200FE
:1000500041005600520032003300310033001201DB
:100060000101FF000008111122220001010200011C
:1000700009021900010100400A0904000001000002
:1000800000000705810308000A0011241FBECFE508
:10009000D4E0DEBFCDBF10E0A0E6B0E0E8E5F8E0D8
:1000A00002C005900D92A436B107D9F710E0A4E67E
:1000B000B0E001C01D92A93AB107E1F78DD0CAC3E3
:1000C0009FCFDC0111968C911197813A11F4AD9A72
:1000D00001C0AD98E199FECF85E28EBBE09A4DB3A9
:1000E00085E690E09093A3008093A20011963C9146
:1000F0001197332351F412968C91129780936500D7
:1001000013968C918093660014C03130A1F4409313
:100110006500E7E6F0E020E091E080818111292B85
:10012000319680E0EF36F80711F0990FF6CF209363
:10013000660082E00895832F8250823098F51496ED
:100140002C9114972770E22FF0E081E090E001C03D
:10015000880F2A95EAF7982F9423323039F4382FF4
:10016000342B20E0992331F421E004C0382F30955E
:100170003423292F12968C91882369F4E959FF4F73
:100180001082E199FECF85E28EBB3DBBF894E29AE6
:10019000E19A789405C0222329F0E959FF4F808322
:1001A00080E0089580E008951F920F920FB60F929D
:1001B00011248F9380918700882321F0109287006B
:1001C000AC9804C081E080938700AC9A8F910F9027
:1001D0000FBE0F901F9018951F93109287002EE06E
:1001E00088E190E00FB6F894A89581BD0FBE21BDBF
:1001F00012BA18BA15BA8FEF87BB84BBAD9AAC9A06
:100200008CEF87BB85E083BF2BD078948BB7806859
:100210008BBF18E0A89532D008B600FE18C088B78A
:10022000816088BF809164008150809364008F5FFB
:1002300071F410936400E7E6F0E08081882311F008
:1002400081508083319680E0EF36F807B1F78091D6
:10025000620084FFDFCF87E890E061E027D1DACF4A
:100260008FE690E080939F000B968093930085B774
:10027000836085BF8BB780648BBF08950F931F93F6
:10028000CF93DF938091A500882309F4A6C0982F0F
:10029000935097FDA0C02FE630E0409193004F5F50
:1002A0008091A1008D3209F08EC0983009F08BC08A
:1002B000C42FD32F9881892F807609F075C01092B2
:1002C00091008981882381F49F7119F481E08093E2
:1002D00091001092920081E990E09093A3008093A6
:1002E000A20020E892E068C0853021F48A818093E2
:1002F000A60058C08630E1F58B81813049F48EE547
:1003000090E09093A3008093A20020EC92E154C06F
:10031000823049F480E790E09093A3008093A2009C
:1003200020EC99E149C0833009F044C08A818823D8
:1003300049F486E290E09093A3008093A20020EC21
:1003400094E03AC0813049F48AE290E09093A300AF
:100350008093A20020EC9EE12FC0823059F588E402
:1003600090E09093A3008093A20020EC96E124C03B
:10037000883019F488EA90E00AC0893021F48A8133
:100380008093A8000FC08A3049F481E990E09093EF
:10039000A3008093A20020E891E00EC08B3011F4FE
:1003A0001092A40020E807C0842F932F8ADE982F94
:1003B00020E802C020EC90E08F81882339F48E8100
:1003C000891728F003C020E880E001C0892F20931E
:1003D0008500809360001092A500909160009F3F7F
:1003E00009F448C08091610084FF44C0192F9930FE
:1003F00008F018E0911B909360008091850080FDCB
:1004000002C00BE401C003EC8F5F80938500209154
:10041000A2003091A30086FD05C0D901912FE9E823
:10042000F0E011C0A9E8B0E080E090E006C0F9017A
:10043000E80FF91FE491ED9301961817C1F705C075
:100440008D91819391509923D9F7F901E10FF11D15
:10045000F093A300E093A20089E890E0612FF6D129
:10046000183019F08FEF80936000009388001C5FB4
:100470001093610086B3837019F01092860011C04A
:1004800080918600882369F494E686B3837049F4EA
:100490009150D9F781E0809386001092A6001092C7
:1004A000A000DF91CF911F910F9108951F93DC0160
:1004B000162F9091A40090FD02C02BE401C023EC04
:1004C0008091620084FF04C09F5F9093A40003C0EA
:1004D0008AE58093620020939400912FE5E9F0E093
:1004E00003C08D91819391509923D9F785E990E0CC
:1004F000612FACD11C5F109362001F9108950F9380
:100500000FB70F9305E0B09BFECF0A95B099E9F7BE
:100510001F933F932F9331E012E006B3102710FD95
:1005200032E0102F3A95C9F700FDE1C006B310275D
:1005300020E010FB20F9DF9316B3012700FB21F91F
:10054000CF93C0919F0006B3102710FB22F93BE028
:10055000D0E04F9316B3012700FB23F94FEF0000C3
:1005600051C005E0B09BFECF0A95B099E9F7DF9145
:1005700000C0D1CF16B3137079F14F7D206213C044
:1005800006B3037049F14F7B206415C0037021F15D
:10059000102F206806B319C006B30370E9F04E7F30
:1005A000216018C039F306B30370B1F0102710FBB7
:1005B00026F9223028F316B3012700FB27F942273A
:1005C00049934FEF06B3243008F3102710FB20F9AE
:1005D000297F11F316B31370E1F1012700FB21F914
:1005E000237FF1F006B30370A1F1102710FB22F96D
:1005F000277EE1F016B3012700FB23F93A9541F17C
:100600002F7CD1F006B3037021F1102710FB24F9E1
:100610002F79C1F016B3012700FB25F92F73C2CF44
:1006200016B31370B1F04D7F2260DCCF06B30370B8
:1006300081F04B7F2460DECF16B3137051F0477FFB
:100640002860E0CF06B3037021F04F7E2061E2CF37
:100650003DC03C2FC0919F003C1B00E433300ABFDB
:10066000A8F108811981412F1F772091A0000D3238
:1006700089F1013E79F10936C1F00777033431F58C
:100680001091A700112311F10091A5000030D1F5C0
:100690003430D2F13093A5001093A1000091930063
:1006A000C093930000939F002FC0121779F447FD69
:1006B00037C03091610034FD23C00AE5009361002A
:1006C000C8E8D0E025C000270093A7004F91CF9144
:1006D000DF910DC01217B9F70093A7000AE5009348
:1006E00061004F91CF910AB706FD3BCFDF9100E447
:1006F0000ABF2F913F911F910F910FBF0F91189536
:10070000432F03C04AE501C042EDC4E1D0E032E02E
:100710005F9353E0C09A08B3B89AB99A20E819C019
:100720000AE53091620034FDEBCF00936200C4E92A
:10073000D0E0EECF052710E008BB10C0052710E081
:10074000089408BB13C0052710E015C0052710E06A
:1007500019C020FF052708BB279517951C3F50F7A8
:1007600020FF0527279508BB17951C3F38F720FF6A
:1007700005272795179508BB1C3F28F720FF05275D
:10078000279517951C3F08BB08F700C0499120FF2B
:10079000052708BB279517951C3F80F520FF0527E7
:1007A000279508BB17951C3F68F520FF052727955F
:1007B000179508BB1C3F58F520FF0527279517956F
:1007C0001C3F08BB38F5242F3A9519F60C7F5F9132
:1007D00008BB32E03A95F1F71091A600C651D0401F
:1007E00011F01093A000016017B31C7F08BB0C7FB1
:1007F0004F91CF9117BB08BBDF9179CF052710E050
:1008000008BBCACF052710E0089408BBCDCF052749
:1008100010E0CFCF052710E0D3CFA82FB92F8FEF4F
:100820009FEF41E050EA615070F02D9138E0722F57
:10083000782796958795269570FF02C0842795277F
:100840003A95A9F7F0CF809590950895E6DF8D93BE
:080850009D930895F894FFCF79
:04085800FF5A5A00E9
:00000001FF
